:020000041500E5
:1000000000000224453A0015FF2400150B250015B9
:10001000132500151B2500152325001500000000E1
:100020000000000000000000000000002B2500156B
:100030003725001500000000953A001543250015EE
:10004000953A0015953A0015953A0015953A001520
:10005000953A0015953A0015953A0015953A001510
:10006000953A0015953A0015953A0015953A001500
:10007000953A0015953A0015953A0015953A0015F0
:10008000953A0015953A0015953A0015953A0015E0
:10009000953A0015953A0015953A0015953A0015D0
:1000A000953A0015953A0015953A0015953A0015C0
:1000B000953A0015953A0015953A0015953A0015B0
:1000C000953A0015953A0015953A0015953A0015A0
:1000D000953A0015953A0015953A0015953A001590
:1000E000953A0015953A0015953A0015953A001580
:1000F000953A0015953A0015953A0015953A001570
:10010000953A0015953A0015953A0015953A00155F
:10011000953A00150000000000000000953A001517
:10012000953A0015953A0015953A0015953A00153F
:10013000953A0015953A0015953A0015953A00152F
:10014000953A0015953A0015953A0015953A00151F
:10015000953A0015953A0015953A0015953A00150F
:10016000953A0015953A0015953A0015953A0015FF
:10017000953A0015953A0015953A0015953A0015EF
:10018000953A0015953A0015953A0015953A0015DF
:10019000953A0015953A0015953A0015953A0015CF
:1001A000953A0015953A0015953A0015953A0015BF
:1001B000953A0015953A0015953A0015953A0015AF
:1001C000953A0015953A0015953A0015953A00159F
:1001D000953A0015953A0015953A0015953A00158F
:1001E000953A0015953A0015953A0015953A00157F
:1001F000953A0015953A0015953A0015953A00156F
:10020000953A0015953A0015953A0015953A00155E
:10021000953A0015953A0015953A0015953A00154E
:10022000953A0015953A0015953A0015953A00153E
:10023000953A0015953A0015953A0015953A00152E
:10024000953A0015953A0015953A0015953A00151E
:10025000953A0015953A001500000000953A0015F2
:10026000953A0015953A0015953A0015953A0015FE
:10027000953A0015953A0015953A0015953A0015EE
:10028000953A0015953A0015953A0015953A0015DE
:10029000953A0015953A0015953A0015953A0015CE
:1002A000953A0015953A0015953A0015953A0015BE
:1002B000953A0015953A0015953A0015953A0015AE
:1002C000953A0015953A0015953A0015953A00159E
:1002D000953A0015953A0015953A00150000000072
:1002E000953A0015953A0015953A0015953A00157E
:1002F000953A001500000000953A0015953A001552
:10030000953A0015953A0015953A0015953A00155D
:10031000953A0015953A0015953A0015953A00154D
:10032000953A0015953A0015953A0015953A00153D
:10033000953A0015953A0015953A00150000000011
:10034000953A0015953A0015953A0015953A00151D
:10035000953A0015953A0015953A0015953A00150D
:10036000953A0015953A0015953A0015953A0015FD
:10037000953A0015953A0015953A0015953A0015ED
:10038000953A0015953A0015953A0015953A0015DD
:10039000953A0015953A0015953A0015953A0015CD
:1003A000953A0015953A0015953A0015953A0015BD
:1003B000953A0015953A0015953A0015953A0015AD
:1003C000953A0015953A0015953A0015953A00159D
:1003D000953A0015953A0015953A0015953A00158D
:0803E000953A0015953A00154D
:100400000348044B834202D0034B03B118477047A3
:100410004805002448050024000000000548064B5C
:100420001B1AD90F01EBA301491002D0034B03B1F2
:1004300018477047480500244805002400000000C4
:1004400010B5064C237843B9FFF7DAFF044B13B11C
:100450000448AFF300800123237010BD4805002439
:1004600000000000AC3A001508B5044B1BB104496C
:100470000448AFF30080BDE80840CFE7000000006B
:100480004C050024AC3A001553B94AB9002908BFFD
:1004900000281CBF4FF0FF314FF0FF3000F06AB969
:1004A000ADF1080C6DE904CE00F006F8DDF804E0CB
:1004B000DDE9022304B070472DE9F047089D0E46A0
:1004C00004460F46002B4AD194468C45B2FA82F27C
:1004D00060D942B1C2F12003974020FA03F30CFA2D
:1004E00002FC1F4394404FEA1C4E1FFA8CF6B7FBE8
:1004F000FEF1230C0EFB117743EA074301FB06F0E4
:1005000098420AD91CEB030301F1FF3780F01581F3
:10051000984240F21281023963441B1AA4B2B3FB21
:10052000FEF00EFB103344EA034400FB06F6A6423D
:100530000AD91CEB040400F1FF3380F00081A642CD
:1005400040F2FD806444023840EA0140A41B0021CF
:100550001DB1D4400023C5E90043BDE8F0878B42BC
:1005600005D90DB1C5E9000100210846F5E7B3FA48
:1005700083F1002946D1B34202D3824200F2F580D2
:10058000841A66EB030201201746002DE5D0C5E969
:100590000047E2E7002A40F09380A1EB0C034FEA0A
:1005A0001C471FFA8CFE0121B3FBF7F607FB163040
:1005B000230C43EA00430EFB06F0984208D91CEBDB
:1005C000030306F1FF3802D2984200F2D08046467B
:1005D0001B1AA4B2B3FBF7F007FB103344EA034441
:1005E0000EFB00FEA64508D91CEB040400F1FF3306
:1005F00002D2A64500F2B6801846A4EB0E0440EAEB
:100600000640A5E7C1F120078B4022FA07FC4CEA1F
:10061000030C06FA01FE20FA07F426FA07F344EA6F
:100620000E0400FA01F84FEA1C404FEA1449B3FBEC
:10063000F0FE1FFA8CF600FB1E3349EA03430EFB63
:1006400006F9994502FA01F20BD91CEB03030EF1EE
:10065000FF3A80F08580994540F28280AEF1020E2B
:100660006344A3EB0909A4B2B9FBF0F300FB1399AF
:1006700044EA094403FB06F6A64208D91CEB04042D
:1006800003F1FF3068D2A64266D9023B644443EAD4
:100690000E40A41BA0FB02E6B4427346B14652D3FF
:1006A0004FD05DB1B8EB030264EB090404FA07F71D
:1006B00022FA01F31F43CC40C5E9007400214CE746
:1006C000C2F1200120FA01F30CFA02FC26FA01F132
:1006D000964033434FEA1C471FFA8CFEB1FBF7F0FC
:1006E00007FB1016190C41EA064100FB0EF68E427C
:1006F00004FA02F408D91CEB010100F1FF382DD2F5
:100700008E422BD902386144891B9BB2B1FBF7F6AC
:1007100007FB161143EA014306FB0EF1994208D983
:100720001CEB030306F1FF3814D2994212D9023EA2
:1007300063445B1A46EA004136E73946EDE618465F
:1007400002E7F045ADD2BEEB020366EB0C060138C2
:10075000B146A6E74646ECE7034698E74046D3E7AE
:10076000D6467EE76444023847E708460DE7023E76
:1007700063442DE7704700BF830730B547D0541E50
:10078000002A3ED0CAB2034601E0013C39D303F847
:10079000012B9D07F9D1032C2CD9CDB205EB0525F2
:1007A0000F2C05EB054535D9A4F1100222F00F0CF2
:1007B00003F1100EE6444FEA121C1A46C2E9005536
:1007C000C2E9025510327245F8D10CF1010214F061
:1007D0000C0F03EB021204F00F0C13D0ACF1040366
:1007E00023F003030433134442F8045B9342FBD128
:1007F0000CF003042CB1C9B21C4403F8011BA34242
:10080000FBD130BD64461346002CF4D1F9E7034612
:100810001446C0E71A46A446E0E700BF70B50F4B88
:100820000F4DAB42A3EB050607D0B610002455F8D8
:10083000043B01349847A642F9D803F037F9094D33
:10084000094B5E1BAB424FEAA60606D0002455F8C2
:10085000043B01349847A642F9D870BD283B0015E7
:10086000283B0015283B0015303B00150020704741
:10087000024A0349034800F04FBB00BF280100248F
:100880006D1B0015080000240C4B4168994210B5FF
:10089000044601D001F06AF9A168094B994202D0DF
:1008A000204601F063F9E168064B994204D02046E6
:1008B000BDE8104001F05AB910BD00BF6405002426
:1008C000CC05002434060024002070472DE9F843AD
:1008D0002A4C2B49DFF8AC90DFF8AC802B4FC4F8E2
:1008E0003811002504230822294604F15C00284E13
:1008F000E360C4E90055C4E90455A5606566A561D7
:10090000FFF73AFF234B63670822294604F1C4002E
:10091000C4E90749C4E90987C4E91A55C4E91E5561
:100920002567C4F8CC50C4F88050E662FFF724FF76
:10093000194BC4F8DC30294604F16803082204F599
:100940009670C4F88430C4E92298C4E92476C4E9D6
:100950003455C4E93855C4F8D850C4F83451C4F8F3
:10096000E850FFF709FF04F1D003C4E93C98C4E95B
:100970003E76C4F8EC30BDE8F88300BF640500247F
:10098000710800154D1D0015751D0015B51D0015CC
:10099000D91D00150900010012000200F8B5254B11
:1009A000D3F838310646002B3CD0234FD7E9013429
:1009B000013B04D51DE05A1C04F1680419D0B4F9B8
:1009C0000C50013B002DF6D11C4BE360C4E90155EE
:1009D000C4E9045565662560A5610822294604F12D
:1009E0005C00FFF7C9FEC4E90C55C4E91155204667
:1009F000F8BD3D680DB12F46D8E74FF4D6713046AB
:100A000000F04CFC044680B10423C0E900530C30D4
:100A10002946A0604FF4D0722546FFF7ADFE3C603A
:100A20002F46C3E7FFF752FFBFE70C233860336060
:100A3000DDE700BF64050024280100240100FFFF5A
:100A4000436B03B17047044B044AD3F83831426317
:100A5000002BF7D13AE700BF640500248908001590
:100A6000704700BF704700BF024A0349002000F0F2
:100A700053BA00BF280100246D080015024A03493B
:100A8000002000F049BA00BF28010024C908001561
:100A900070B504468AB008460D4600F0D1F9164EEE
:100AA000626B079001214318CDE90861022006A975
:100AB00003910695A16805930490A2B1B1F90C20A9
:100AC0004B6E900405D442F4005223F400538A8103
:100AD0004B669B040DD403AA204600F017F840B9DA
:100AE0000A200AB070BD20460191FFF7A9FF0199C5
:100AF000E4E74FF0FF30F4E71C3B0015024B0146E2
:100B00001868FFF7C5BF00BF000000249368002BE2
:100B100000F0F6802DE9F04FB1F90CC01CF0080F81
:100B200083B0904681460C4631D00B697BB31CF0F4
:100B30000207D8F8006038D00027D4F824B0E16963
:100B4000DFF8BCA23D4655452B463A4628BF5346E2
:100B50004846C5B1D847002840F3C880D8F80830C7
:100B60001B1A07442D1AC8F80830002B00F0B48077
:100B700055452B46D4F824B0E16928BF53463A4680
:100B80004846002DE6D1D6E900750836DBE7214658
:100B9000484600F031FE002840F0AD80B4F90CC0AA
:100BA000D8F800601CF00207C6D11CF0010A63D11E
:100BB0002368A168574618468B46002F58D01CF46E
:100BC000007F00F0B180B9420A4600F2DD801CF4DB
:100BD000906F2FD0216962695D1A02EB420202EB2D
:100BE000D2726B1C52103B44934292BF93469B4679
:100BF0001A461CF4806F00F0E6801146484600F06B
:100C00004DFB002800F0F5802A462169019000F094
:100C1000F5FFA289019B22F4906242F08002A2813A
:100C20005819ABEB0505C4F814B02361A56020602A
:100C3000BB463A465146019200F0B0FAA1682368DB
:100C4000019AA1EB0B011A443D46A16022600027E6
:100C5000D8F808305B1BAA44C8F80830002B3BD0FA
:100C60002368A168B4F90CC018468B46002FA6D1A2
:100C7000D6E900A708369EE73846BB463D46002D1C
:100C800040D0002845D03A46D4E904C32068A16882
:100C9000AA4228BF2A46604504D901EB030A5245FF
:100CA00000F38280934272DCE169D4F824C05A4692
:100CB0004846E047B0F1000A18DDB7EB0A070FD04D
:100CC0000120D8F80830A3EB0A03D344A5EB0A05AA
:100CD000C8F80830002BD2D1002003B0BDE8F08F57
:100CE0002146484600F020FA0028EAD0B4F90C303A
:100CF00043F04003A3814FF0FF3003B0BDE8F08F15
:100D000000207047756833460836002DFAD0D3F8B6
:100D100000B02A460A21584600F022F9002865D082
:100D20000130A0EB0B07AEE722699A4214D3626947
:100D3000BA4211D86FF00043BB4228BF3B46656AF8
:100D400093FBF2F3E16902FB03F348465246A847DE
:100D5000051ECBDD7F1B7BE7B94228BF39460D4618
:100D600018460A46514600F019FAA1682368491B43
:100D70002B44A16023600029ECD12146484600F0B5
:100D8000D3F90028E6D0B1E7BB463A4652E75946C8
:100D9000019200F003FA019AA3689B1AA3602368EA
:100DA00013442360924688E75946524600F0F6F90C
:100DB0002368534423602146484600F0B5F90028D3
:100DC0003FF47BAF92E7484601F03CF80346002829
:100DD0007FF426AF2169484600F0CCFDB4F90C3011
:100DE0000C22C9F8002023F0800381E76A1C174613
:100DF0004AE70C22B4F90C30C9F8002078E700BFAC
:100E000000FCFF7F002301461A46184600F0E8BFA9
:100E100038B5074D074C2C1BA41005D0013C55F8E4
:100E2000043D9847002CF9D1BDE8384002F044BE9B
:100E3000343B0015303B00150000000000000000AE
:100E400030B490F800F020F007016FF0000C10F0C3
:100E5000070491F820F040F048804FF000046FF054
:100E60000700D1E9002391F840F000F1080082FA70
:100E70004CF2A4FA8CF283FA4CF3A2FA8CF34BBB3B
:100E8000D1E9022382FA4CF200F10800A4FA8CF2B4
:100E900083FA4CF3A2FA8CF3E3B9D1E9042382FA82
:100EA0004CF200F10800A4FA8CF283FA4CF3A2FA97
:100EB0008CF37BB9D1E9062301F1200182FA4CF2CF
:100EC00000F10800A4FA8CF283FA4CF3A2FA8CF336
:100ED000002BC6D0002A04BF04301A4612BAB2FA58
:100EE00082F200EBD20030BC7047D1E9002304F05D
:100EF0000305C4F100004FEAC50514F0040F91F892
:100F000040F00CFA05F562EA05021CBF63EA05032E
:100F100062464FF00004AAE72DE9F84307468846E9
:100F200016464FF00009D6E90154013D10D4A389BB
:100F3000012B08D9B4F90E3001332146384602D0CE
:100F4000C04749EA0009013D6B1C04F16804EED179
:100F50003668002EE7D14846BDE8F883000000005F
:100F600001F0FF01102A2BDB10F0070F08D010F85A
:100F7000013B013A8B422DD010F0070F42B3F6D15E
:100F8000F0B441EA012141EA014122F007047FF077
:100F900000070023F0E80256083C85EA010586EACE
:100FA000010685FA47F5A3FA87F586FA47F6A5FA0A
:100FB00087F68EB9EED1F0BC01F0FF0102F0070216
:100FC00032B110F8013B013A83EA010313B1F8D1C1
:100FD0000020704701387047002D06BF35460338A2
:100FE000073815F0010F07D1013015F4807F02BFDB
:100FF000013015F4C03F0130F0BC0138704700BF2C
:10100000B1F90C20F8B516070C46074649D44968D3
:1010100042F400630029A3815FDDA56A002D3ED064
:10102000002112F480523E683960E16961D10123E8
:101030003846A847451C02466BD0B4F90C30A56A67
:10104000E169580705D56368D21A236B0BB1E36BCE
:10105000D21A00233846A847411C4CD13968B4F94C
:101060000C301D293FD82F4ACA40D2073BD52269F0
:10107000226023F40062A281DD044FF0000262606E
:1010800001D5002943D0216B3E6041B104F14003FA
:10109000994202D0384600F06DFC00232363002003
:1010A000F8BD0E69002EFAD00D680E6092070CBFD5
:1010B0004B690023AD1B8B600CE0D4F824C0E169C0
:1010C0002B4632463846E047B0F1000CA5EB0C0544
:1010D000664406DD002DF0DCE1E7E16B00299CDCD5
:1010E000DDE7B4F90C3043F04003A3814FF0FF304B
:1010F000F8BD226DA5E7B4F90C302269226023F413
:101100000062A281DB044FF000026260BBD5206563
:10111000B9E73B68002B90D01D2B01D0162BE0D1F6
:101120003E60BCE70100402010B5044682B008B123
:10113000436B53B1B1F90C0008B902B010BD2046A1
:1011400002B0BDE81040FFF75BBF0191FFF778FCEC
:101150000199EFE7A0B138B50C4B1D6804460DB1FD
:101160006B6B4BB1B4F90C0000B938BD2146284671
:10117000BDE83840FFF744BF2846FFF761FCF1E7C0
:10118000034A04490448FFF7C7BE00BF000000241B
:1011900028010024291100150800002488420ED9D6
:1011A0008B1883420BD900EB020C002A6ED06246EA
:1011B00013F801CD02F801CD9942F9D170470F2AF9
:1011C0000FD8034602F1FF3C002A5FD00CF1010C5E
:1011D000013B8C4411F8012B03F8012F6145F9D133
:1011E000704740EA01039B0751D1A2F1100370B58B
:1011F00001F1200C23F00F0501F1100E00F1100495
:10120000AC441B095EF8105C44F8105C5EF80C5CA2
:1012100044F80C5C5EF8085C44F8085C5EF8045C1A
:1012200044F8045C0EF1100EE64504F11004E9D117
:10123000013312F00C0F01EB031102F00F0400EB6D
:10124000031328D0043C24F003064FEA940C1E44F8
:101250001C1F8E465EF8045B44F8045FB442F9D16B
:101260000CF1010402F0030203EB840301EB84019F
:1012700002F1FF3C4AB10CF1010C013B8C4411F826
:10128000012B03F8012F6145F9D170BD704702F1C0
:10129000FF3C03469AE72246EAE700BF2DE9F04FFC
:1012A00001F10B05162D83B0064623D8102900F254
:1012B000AF8000F07FFF102518230220C14F3B4470
:1012C000A3F108025C68944200F025816368E2683B
:1012D000A16823F00303CA602344304691605A6832
:1012E00042F001025A6000F067FF0834204603B064
:1012F000BDE8F08F35F0070500F18A80A94200F2C1
:10130000878000F057FFB5F5FC7FC0F06D816B0A58
:1013100000F08280042B00F22481AB0903F1390034
:1013200003F1380EC300A74F3B44A3F1080C5C68DF
:10133000A44507D10DE0002AE16880F2E6808C45E3
:1013400007D00C46636823F003035A1B0F2AF2DD13
:101350007046DFF874823C69444500F0C3806368DE
:1013600023F0030CACEB05030F2B00F34181002BA2
:10137000C7E9048880F22C81BCF5007FD7F804E02F
:1013800080F0CF804FEADC0101314FEA5C1C012381
:1013900003FA0CF357F83120A2604EEA030E07EB74
:1013A000C103083BE360C7F804E047F83140D4606C
:1013B00083104FF0010C0CFA03FCF44532D81CEA00
:1013C0000E0F08D120F003004FEA4C0C1CEA0E0F60
:1013D00000F10400F8D007EBC00AD6468146DEF8DB
:1013E0000C300BE0596821F003014A1B0F2A1C4600
:1013F000DB6800F3C280002A80F2D6809E45F1D1DE
:1014000009F1010919F0030F0EF1080EE7D118E1F7
:101410000C233360002469E74FF4007340204FF041
:101420003F0E80E7BC68636823F00309A94503D336
:10143000A9EB05030F2B58DCDFF890B1DBF8002097
:1014400004EB09031032082002EB0508009300F0BA
:101450006FFCD7F808140131024605D008F1FF38B7
:101460008044414201EA080841463046009200F0BB
:10147000A5FEB0F1FF3F009A824600F0D48004EB55
:101480000903834200F2CD80DBF804104144CBF81D
:101490000410084602F1FF3C40F0F5801AEA0C0FF8
:1014A00040F0F180D7F808A0C84448F00100CAF81D
:1014B0000400DBF82C208A42DBF8302038BFCBF860
:1014C0002C108A4238BFCBF83010544620F0030865
:1014D000A845A8EB050301D30F2B06DC304600F02E
:1014E0006BFE97E7D7F804E062E7621943F0010367
:1014F00045F0010565603046BA60536000F05CFE5F
:101500000834204603B0BDE8F08FA2682344D160C0
:1015100030468A60E3E6DC68A3427FF4D7AE02304F
:1015200017E7BCF5206F4FEA5C2273D3142A00F250
:101530000A8102F15C03DB005B32F918FB580839C1
:10154000994203D1E6E09B68994204D05A6822F0A0
:1015500003026245F7D8D968C4E902318C60DC60C7
:1015600026E7142B62D9542B00F2F6802B0B03F1E3
:101570006F0003F16E0EC300D5E6D4F808C0304604
:10158000661945F001056560CCF80C30C3F808C059
:1015900042F00103C7E90466C6E90288736062503D
:1015A00000F00AFE0834A1E6214430464A6842F0C1
:1015B00001024A6054F8082FD3609A6000F0FCFDE5
:1015C00094E600BF3801002440010024A006002456
:1015D000A4443046DCF8043043F00103CCF8043076
:1015E00000F0EAFD083481E6E80805F1080365E645
:1015F000621943F0010145F0010565603046C7E915
:101600000422C2E90288516044F80C3000F0D4FD95
:1016100008346BE64FEA9C1202F13903DB003832E2
:101620008BE7BC4228D0BC6860684FE703F15C00E0
:1016300003F15B0EC30076E65AF80839534540F0D3
:10164000D88010F0030F00F1FF30F5D17B6823EA5A
:101650000C037B604FEA4C0C9C453FF6E3AEBCF1BB
:10166000000F04D1DEE64FEA4C0C09F104091CEA34
:10167000030FF8D04846AEE6DBF804004044CBF850
:10168000040002F1FF3CD7F8081401316ED004EBDE
:101690000903AAEB03031844CBF804001AF007036C
:1016A000009341D0C3F108018A44D0440A4408EAB7
:1016B0000C01521A02EA0C013046019100F07EFD45
:1016C000421C6FD00199A0EB0A0000EB0108DBF887
:1016D0000420C7F808A048F001001144BC42CAF831
:1016E0000400CBF804103FF4E4AEB9F10F0F40D979
:1016F0006268A9F10C0020F0070002F00102024329
:101700006260052322180F28C2E9013352D8DAF8A3
:101710000400CEE692104FF0010C0CFA02F24EEAF1
:10172000020EC7F804E017E70AEB080101EA0C0112
:10173000521A02EA0C013046019100F03FFD431CB1
:10174000C0D10099C3E7542A17D84FEA1C3202F1DE
:101750006F03DB006E32F0E6B3F5AA7F17D8EB0B10
:1017600003F1780003F1770EC300DCE5C7F808A4A5
:1017700094E70123CAF80430B0E6B2F5AA7F23D873
:101780004FEADC3202F17803DB007732D5E640F233
:101790005452934223D8AB0C03F17D0003F17C0E2D
:1017A000C300C0E5009BA3F108029044A8EB0A081F
:1017B00000218CE704F10801304600F0DBF8DBF88B
:1017C0000410D7F808A0A2E740F254539A420CD86C
:1017D0004FEA9C4202F17D03DB007C32ADE64FF420
:1017E0007E737F204FF07E0E9DE54FF47E737E2248
:1017F000A3E67B682EE700BF38B52F4B1B68054674
:101800000C4613B15A6B002A4BD0B4F90C301807B0
:101810001CD5226922B313F0010107D061690020B1
:101820004942A060A1613AB1002038BD980758BF75
:101830006169A160002AF7D1190658BF1046F4D596
:1018400043F04003A3814FF0FF3038BDD9062CD5BB
:101850005A0712D4226943F00803A381002ADAD17F
:1018600003F42071B1F5007FD5D02146284600F061
:10187000C9FCB4F90C302269CDE7216B51B104F1F8
:101880004002914204D0284600F074F8B4F90C30BC
:101890000022226322690021C4E9002123F02403ED
:1018A000D9E71846FFF7CCF8AFE7092243F0400329
:1018B0002A60A381C7E700BF000000242DE9F84398
:1018C00006460820894600F033FADFF89C8005467A
:1018D000304600F06FFCD8F808305F6827F0030747
:1018E000A7F11104A4EB09042C44B4FBF5F4013C6A
:1018F00005FB04F4A54208DC0021304600F05EFC44
:10190000D8F808303B44984205D0304600F054FCEB
:101910000020BDE8F8836142304600F04FFC013002
:101920000FD0124AD8F808303F1B47F001075F601C
:10193000136830461B1B136000F03EFC0120BDE81D
:10194000F8830021304600F039FCD8F80820831ACB
:101950000F2BDADD43F001035360054B03491B688D
:10196000C01A0860D1E700BF38010024A406002493
:101970004005002400297CD0F8B50C46064600F04E
:1019800019FC54F8043C764FA4F1080523F001013A
:101990006818D7F808C04268844522F0030200F0B6
:1019A0008380DB07426000EB020C33D454F8084C10
:1019B000DCF804302D1B2144AC6807F1080C6445A9
:1019C00003F0010364D0D5F80CE0C4F80CE0CEF8C5
:1019D0000840002B00F0818041F001036B60016042
:1019E000B1F5007F22D27868CB0801224909013382
:1019F0008A40024357F833107A6007EBC302083A73
:101A0000C5E9021247F83350CD603046BDE8F840D2
:101A100000F0D2BBDCF80430DB072BD541F001032A
:101A2000B1F5007F44F8043C0160DCD3B1F5206FD0
:101A30004FEA512353D28B0903F1390003F13802E5
:101A4000C300F818FB580838984203D161E09B683E
:101A5000984204D05A6822F003028A42F7D8D86824
:101A6000C5E902308560DD603046BDE8F84000F031
:101A7000A3BB7047114407F1080C836863453FD04E
:101A8000C268DA60936041F001036B606950A7E7B8
:101A9000002B5FD10A44D0E90213CB60996042F079
:101AA00001036B60AA50B0E70A44D90707D454F881
:101AB000083CED1A1A44D5E90213CB60996042F054
:101AC00001036B60274BBD601B6893429DD8264B7A
:101AD00030461968FFF7F2FE97E71144CDE7142B63
:101AE00008D9542B1DD80B0B03F16F0003F16E02C4
:101AF000C300A6E703F15C0003F15B02C300A0E7AB
:101B000041F00103C7E90455C5E902CC6B60695097
:101B10007BE779689210012404FA02F20A437A60A2
:101B20009EE7B3F5AA7F06D8CB0B03F1780003F14B
:101B30007702C30085E740F25452934206D88B0CDB
:101B400003F17D0003F17C02C3007AE74FF47E735A
:101B50007E2276E741F001036B60016055E700BF2C
:101B60003801002444050024A006002470B539B1D2
:101B700006460C4608B1436B83B3B4F90C3013B975
:101B80000025284670BD21463046FFF739FAE36A42
:101B9000054633B1E169304698470028B8BF4FF099
:101BA000FF35A3891B061CD4216B41B104F140030E
:101BB000994202D03046FFF7DDFE00232363616CBB
:101BC00021B13046FFF7D6FE00236364FEF748FFDD
:101BD0000023A381FEF746FF284670BDFEF730FFC5
:101BE000CBE721693046FFF7C5FEDDE7024B014632
:101BF0001868FFF7BBBF00BF00000024844641EA1D
:101C0000000313F003036DD1403A41D351F8043B74
:101C100040F8043B51F8043B40F8043B51F8043BC6
:101C200040F8043B51F8043B40F8043B51F8043BB6
:101C300040F8043B51F8043B40F8043B51F8043BA6
:101C400040F8043B51F8043B40F8043B51F8043B96
:101C500040F8043B51F8043B40F8043B51F8043B86
:101C600040F8043B51F8043B40F8043B51F8043B76
:101C700040F8043B51F8043B40F8043B51F8043B66
:101C800040F8043B51F8043B40F8043B403ABDD2D5
:101C9000303211D351F8043B40F8043B51F8043B77
:101CA00040F8043B51F8043B40F8043B51F8043B36
:101CB00040F8043B103AEDD20C3205D351F8043B06
:101CC00040F8043B043AF9D2043208D0D2071CBFD2
:101CD00011F8013B00F8013B01D30B8803806046FB
:101CE000704700BF082A13D38B078DD010F0030371
:101CF0008AD0C3F10403D21ADB071CBF11F8013BE1
:101D000000F8013B80D331F8023B20F8023B7BE72F
:101D1000043AD9D3013A11F8013B00F8013BF9D25A
:101D20000B7803704B7843708B78837060467047F4
:101D3000082802D14FF48050704708B500F000FB2E
:101D4000162303604FF0FF3008BD00BF10B50C46EE
:101D5000B1F90E1000F0FAFA002803DB236D0344FA
:101D6000236510BDA38923F48053A38110BD00BF58
:101D7000002070472DE9F0410C46B1F90C101F46C8
:101D8000CB05054616460BD421F48051A1813B4674
:101D9000B4F90E1032462846BDE8F04100F0F4B91F
:101DA000B4F90E100223002200F0E6FAB4F90C1088
:101DB000EAE700BF10B50C46B1F90E1000F0DCFAEE
:101DC000B4F90C30421C0EBF23F4805343F480530B
:101DD0002065A38110BD00BFB1F90E1000F000BA5C
:101DE00070B4164D2C681CB365681F2D23DC38B900
:101DF000AB1C0135656044F82310002070BC7047AF
:101E000004EB850C0228CCF88820D4F888614FF0C8
:101E1000010202FA05F246EA0206C4F88861CCF82B
:101E20000831E5D1D4F88C311343C4F88C31DFE7A5
:101E3000034C2C60D8E74FF0FF30DFE7D4060024D6
:101E4000D80600242DE9F84F1646002900F09680A8
:101E50000C46804606F10B0500F0ACF954F8041C62
:101E6000162DA4F1080921F0030758D81025AE4219
:101E700058D8AF4260DABE4B9A6809EB070C62454E
:101E8000DCF8040000F0908020F0010363445B68FC
:101E9000DB0768D420F003003B189D4247DDCB07E9
:101EA00012D454F8083CA9EB030BDBF8043023F000
:101EB0000302104400EB070A554540F3F68007EB98
:101EC000020A554540F3CC8031464046FFF7E6F91B
:101ED0000646002800F0208154F8043C23F001035A
:101EE0004B44A0F10802934200F0B4803A1F242A28
:101EF00000F2D780132A00F2A2800346224611681E
:101F000019605168596092689A6021464046FFF70F
:101F100031FD404600F050F93046BDE8F88F35F00D
:101F20000705A4D50C23C8F80030002618E01F468A
:101F3000DCE90223D3609A60D9F804307A1B0F2AB7
:101F400003F0010309EB07001DD83B43C9F8043037
:101F5000436843F001034360404600F02DF92646F4
:101F60003046BDE8F88FC907AED454F8083CA9EB59
:101F7000030BDBF8043023F00302A0E7BDE8F84FC1
:101F80001146FFF78BB909EB05012B4342F0010223
:101F9000C9F804304A60436843F0010343600831E4
:101FA0004046FFF7E7FCD7E720F00300C21905F130
:101FB000100C624580F29180CA0785D454F8082C31
:101FC000A9EB020BDBF8042022F00302104400EB23
:101FD000070AD4453FF773AF5E46DBF80C1056F89E
:101FE000080F3A1F242AC160886000F2AE80132ACD
:101FF00040F2A9802168CBF808106168CBF80C107A
:102000001B2A00F2A88008340BF11002216811602D
:1020100061685160A16891600BEB0501AAEB0502B4
:1020200042F0010299604A60DBF8043003F00103DA
:102030002B434046CBF8043000F0BEF890E723680D
:102040000360636843601B2A3CD804F1080200F176
:10205000080354E750F8043C23F003031F446BE7E4
:102060003A1F5E46DBF80C3056F8081F242ACB6076
:10207000996022D8132A1ED92368CBF808306368E8
:10208000CBF80C301B2A3BD808340BF11003226824
:102090001A6062685A60A2689A6034465746D94608
:1020A0004AE72146FFF77AF82FE7DCE902133A1FE7
:1020B000CB609960D5E73346E9E721463046FFF724
:1020C0006DF8EAE7A3688360E368C360242A27D039
:1020D00004F1100200F1100311E709EB050199600A
:1020E000531B43F001034B6054F8043C03F001031D
:1020F0002B43404644F8043C00F05EF826462FE7A8
:10210000A368CBF81030E368CBF81430242A10D041
:1021100010340BF11803BAE7404600F04DF804E71D
:10212000236903616169416104F1180200F1180338
:10213000E5E62369CBF818306369CBF81C30183416
:102140000BF12003A3E7324660E721463046FFF754
:1021500025F8074B60E7A168CBF81010E168CBF8D1
:102160001410242A06D010340BF118024EE700BFD9
:10217000380100242269CBF818206269CBF81C20B2
:1021800018340BF1200241E738B50C46084D84465F
:10219000114620461A4600232B60644600F0BEFA22
:1021A000431C00D038BD2B68002BFBD0236038BD0A
:1021B00068080024704700BF704700BF38B5074D5E
:1021C0000022044608462A6000F034F9431C00D07F
:1021D00038BD2B68002BFBD0236038BD6808002475
:1021E00038B5074D0022044608462A6000F002F97F
:1021F000431C00D038BD2B68002BFBD0236038BDBA
:10220000680800242DE9F041B1F90C300C4699071B
:1022100096B008D504F143030122C4E904322360D7
:1022200016B0BDE8F081B4F90E100029064626DB91
:102230006A4600F0B7F800281FDB019D05F47045E1
:10224000A5F50055B5FA85F54FF480686D094FF492
:10225000006741463046FFF721F8E8B1B4F90C3089
:10226000C4F8148043F0800320602061A3813DBB4B
:102270003B43A38116B0BDE8F081B4F90C3013F0F4
:10228000800519D04FF040080025414630462F46C2
:10229000FFF704F80028E1D1B4F90C309A05BFD457
:1022A00023F0030304F1430243F002030121C4E9D4
:1022B0000421A3812260B3E74FF480682F46C8E76A
:1022C000B4F90E10304600F083F810B9B4F90C30B0
:1022D000CEE7A38923F0030343F001031BB2C7E752
:1022E00070B50C46B1F90E10002996B015461E4681
:1022F00014DB6A4600F056F800280FDB019901F460
:102300007041A1F50051B1FA81F14FF480634909A0
:102310004FF4006031602B6016B070BDA18911F0E0
:10232000800106D000214023084631602B6016B0A2
:1023300070BD4FF48063084631602B6016B070BDED
:10234000014B1868704700BF0000002438B50C46E8
:10235000084D8446114620461A4600232B606446E9
:1023600000F000FA431C00D038BD2B68002BFBD0D6
:10237000236038BD6808002438B50C46084D8446F3
:10238000114620461A4600232B60644600F04AF8A6
:10239000431C00D038BD2B68002BFBD0236038BD18
:1023A0006808002470B50C46084D034600262046F8
:1023B00011461C462E6000F025F8431C00D070BD6D
:1023C0002B68002BFBD0236070BD00BF6808002481
:1023D00038B5074D0022044608462A6000F01AF876
:1023E000431C00D038BD2B68002BFBD0236038BDC8
:1023F00068080024024B58221A604FF0FF307047E3
:1024000068080024024B58221A604FF0FF307047D2
:1024100068080024024B58221A600020704700BF51
:1024200068080024024B58221A604FF0FF307047B2
:1024300068080024044A05491368002B08BF0B46AE
:1024400018441060184670476C080024780800246F
:1024500080B582B000AF01F085F800F047F800F0D9
:10246000CBF800F029F81148FEF748FB00237B6009
:1024700014E04FF400510E4800F01DFC4FF496702C
:1024800000F08AF84FF40051094800F022FC4FF4A4
:10249000967000F081F87B6801337B607B68092BC4
:1024A000E7D9044800F032FD00BFFDE7C43A00154B
:1024B000003403580000081580B586B000AF3B46D5
:1024C000184600F0DDFB4FF400533B6001237B60B6
:1024D0000023BB603B461946034800F08DF900BF5E
:1024E0001837BD4680BD00BF0034035880B500AF2B
:1024F00001214FF4002000F0E7FC00BF80BD80B454
:1025000000AF00BFBD4680BC704780B400AF00BFC5
:10251000FDE780B400AF00BFFDE780B400AF00BFAF
:10252000FDE780B400AF00BFFDE780B400AF00BF9F
:10253000BD4680BC704780B400AF00BFBD4680BCC4
:10254000704780B400AF00BFBD4680BC704700003C
:1025500080B483B000AF78607B68B3F1807F01D333
:10256000012312E07B6823F07F430A4A013B53605A
:10257000084B00229A60074B05221A60054B1B6826
:10258000044A23F002031360002318460C37BD46AB
:1025900080BC704710E000E080B59CB000AF786070
:1025A00007F10C03184600F0C9FCFB6B104AA2FBB4
:1025B00003239B091846FFF7CBFF0023FB6609E0C6
:1025C00000BF0C4B1B6803F48033002BF9D0FB6E6B
:1025D0000133FB66FA6E7B689A42F1D3054B1B68A8
:1025E000044A23F00103136000BF7037BD4680BD6D
:1025F000D34D621010E000E080B58EB000AF012135
:102600004FF0084000F060FC01214FF0004000F066
:1026100039FC07F12003184600F032FB4FF4007339
:102620003B6202237B620023BB6207237B6307F1CB
:1026300020031946174800F0DFF84FF480633B622F
:1026400002237B620023BB6205237B6307F1200327
:102650001946104800F0D0F83B1D184601F092F9D9
:102660004FF4E1337B600023BB600023FB60002359
:102670003B610023BB6106237B613B1D1946064875
:1026800001F06AF80121044801F09BF900BF3837D6
:10269000BD4680BD0028035800C4004080B582B00C
:1026A00000AF786039607B680D2B03D1194B012294
:1026B0001A601AE07B680A2B14D1164B1B68002B9A
:1026C0000CD100BF4FF48071134801F0A4F9034608
:1026D000002BF7D00D21104801F08EF90D4B002290
:1026E0001A6002E00B4B00221A6000BF4FF48071A9
:1026F000094801F090F90346002BF7D07B68DBB264
:102700001946054801F078F97B6818460837BD4638
:1027100080BD00BF7008002400C4004080B586B0B2
:1027200000AFF860B9607A6000237B610EE0BA68A0
:102730007B6913441B781A46094B1B689B68194632
:102740001046FFF7ABFF7B6901337B617B687A69D9
:102750009A42ECD37B6818461837BD4680BD00BF4F
:102760000000002480B485B000AFF860B9607A60E2
:102770007B6818461437BD4680BC704780B485B06E
:1027800000AF7860104B1B6DFB60FB6823F00F03FC
:10279000FB60FA687B681343FB600B4AFB681365B8
:1027A000094B1B6CFB60FA68084B1340FB60FB682D
:1027B00043F40013FB60044AFB68136400BF143742
:1027C000BD4680BC704700BF00100358FF7700F083
:1027D00080B500AF074B1B69064A43F01003136135
:1027E000044B4FF0A8529A600420FFF7C7FF00BFC8
:1027F00080BD00BF00ED00E0B0B495B000AF7860E0
:1028000039600023FB6400233B630023BB64002387
:102810007B640023FB6200233B640023FB630023F3
:10282000BB6300237B63994A07F1200307CA03C3F4
:102830001A70974B07F10C041D460FCD0FC42B687F
:1028400023807A68934B13449B0AFB6204E23B6843
:102850001A680121FB6C01FA03F313403B63012268
:10286000FB6C02FA03F3BB64FB6A082B19D8BB6C40
:102870009AB2FB6A5B0050333B4433F8443C13404C
:102880009BB2002B0DD03B681A68BB6C1340002B29
:1028900004D001227B6B02FA03F37B647B6B013370
:1028A0007B630023BB643B6B002B00F0D2813B6851
:1028B0005B68022B0BD03B685B68122B07D03B6830
:1028C0005B68002B03D03B685B68032B3DD1FB6C3E
:1028D00003F00803002B1CD07B685B6ABB64FB6CB5
:1028E00003F007039B000F2202FA03F3DB43BA6CE9
:1028F0001340BB643B685A69FB6C03F007039B0001
:1029000002FA03F3BA6C1343BB647B68BA6C5A6275
:102910001BE07B681B6ABB64FB6C03F007039B0036
:102920000F2202FA03F3DB43BA6C1340BB643B682B
:102930005A69FB6C03F007039B0002FA03F3BA6CBD
:102940001343BB647B68BA6C1A623B685B68012BFB
:102950000BD03B685B68022B07D03B685B68112B90
:1029600003D03B685B68122B18D17B685B68BB6443
:102970000122FB6C02FA03F3DB43BA6C1340BB6425
:102980003B685B681B0903F00102FB6C02FA03F36E
:10299000BA6C1343BB647B68BA6C5A607B681B6873
:1029A000BB64FB6C5B00032202FA03F3DB43BA6CEB
:1029B0001340BB643B685B6803F00302FB6C5B0085
:1029C00002FA03F3BA6C1343BB647B68BA6C1A60F7
:1029D0007B68DB68BB64FB6C5B00032202FA03F3D9
:1029E000DB43BA6C1340BB643B689A68FB6C5B00CA
:1029F00002FA03F3BA6C1343BB647B68BA6CDA6007
:102A00007B689B68BB640122FB6C02FA03F3DB4327
:102A1000BA6C1340BB643B68DA68FB6C02FA03F3E0
:102A2000BA6C1343BB647B68BA6C9A607B68DB6AE0
:102A3000BB64FB6C5B00032202FA03F3DB43BA6C5A
:102A40001340BB64FB6A082B00F2E4803B6B9AB234
:102A5000FB6A5B0050333B4433F8443C13409BB269
:102A6000002B00F0D7807B680B4A934218D13B6B58
:102A7000012B15D1094BD3F8E8303B64074BD3F851
:102A8000F430FB634FF00043BB634EE0DC3A0015CB
:102A9000E83A001500D8FCA7004803580024035862
:102AA000744907F12002FB6A13441B785B09DBB20F
:102AB00038339B000B445B683B646E4907F120028E
:102AC000FB6A13441B785B09DBB23C3351F82330BB
:102AD000FB637B68684A934202D17B6C5A0800E032
:102AE0007A6C07F12001FB6A0B441B781F2B05D879
:102AF00007F12001FB6A0B441B7813E007F120016A
:102B0000FB6A0B441B783F2B06D807F12001FB6AB8
:102B10000B441B78203B05E007F12001FB6A0B44C6
:102B20001B78403B02FA03F3BB633B681A69534BC3
:102B3000134013F5803F13D13A6CBB6B13433B64D6
:102B4000FA6BBB6B1343FB633B681B6903F00F021B
:102B5000FB6C5B0002FA03F3BA6C1343BB642FE017
:102B60003B681B6903F07F43B3F17F4F15D1BB6B0B
:102B7000DB433A6C13403B64BB6BDB43FA6B1340A3
:102B8000FB633B681B6903F00F02FB6C5B0002FAFE
:102B900003F3BA6C1343BB6412E0BB6BDB433A6CC8
:102BA00013403B64BB6BDB43FA6B1340FB633B6836
:102BB0001A69FB6C5B0002FA03F3BA6C1343BB6443
:102BC0007B682D4A93420BD13B6B012B08D1294ADC
:102BD0003B6CC2F8E830274AFB6BC2F8F43035E0B2
:102BE000244907F12002FB6A13441B785B09DBB21E
:102BF00038339B000B443A6C5A601E4907F120029F
:102C0000FB6A13441B785B09DBB23C33FA6B41F877
:102C100023201BE03B681B6903F07F43B3F17F4F28
:102C20000BD13B681B6903F00F02FB6C5B0002FADF
:102C300003F3BA6C1343BB6408E03B681A69FB6C8E
:102C40005B0002FA03F3BA6C1343BB647B68BA6C93
:102C5000DA62FB6C0133FB643B681A68FB6C22FA96
:102C600003F3002B7FF4F3AD00BF00BF5437BD4624
:102C7000B0BC704700240358004803580000FFFF11
:102C800080B483B000AF78607B6800221A607B68F4
:102C900000225A607B6800229A607B680122DA6019
:102CA0007B6800221A617B680F225A6100BF0C37D3
:102CB000BD4680BC704780B483B000AF78600B46DF
:102CC0007B807A887B689A6100BF0C37BD4680BCE8
:102CD000704780B483B000AF78600B467B807A8801
:102CE0007B689A6200BF0C37BD4680BC704700000D
:102CF00080B485B000AF7860094B1B6BFB60FB684C
:102D000023F04073FB60FA687B681343FB60044A5E
:102D1000FB68136300BF1437BD4680BC704700BF1B
:102D20000000035880B400AF034B1B6B03F04063FB
:102D30001846BD4680BC70470000035880B485B07B
:102D400000AF7860094B5B6BFB60FB6823F03F03CF
:102D5000FB60FA687B681343FB60044AFB685363BB
:102D600000BF1437BD4680BC704700BF0000035849
:102D700080B485B000AF7860094B1B6CFB60FB68CA
:102D800023F07063FB60FA687B681343FB60044ABE
:102D9000FB68136400BF1437BD4680BC704700BF9A
:102DA0000000035880B485B000AF7860094B1B6CFD
:102DB000FB60FB6823F47043FB60FA687B68134395
:102DC000FB60044AFB68136400BF1437BD4680BC37
:102DD000704700BF0000035880B485B000AF786032
:102DE000094B1B6CFB60FB6823F47063FB60FA68A3
:102DF0007B681343FB60044AFB68136400BF14370D
:102E0000BD4680BC704700BF0000035880B485B049
:102E100000AF7860094B1B6CFB60FB6823F00F036D
:102E2000FB60FA687B681343FB60044AFB68136429
:102E300000BF1437BD4680BC704700BF0000035878
:102E400080B487B000AFF860B9607A603B600C4B2B
:102E50005B6C7B617B6903F0F8337B61FA68BB686C
:102E60001A437B681A433B6813437A6913437B61B7
:102E7000034A7B69536400BF1C37BD4680BC704762
:102E80000000035880B483B000AF78600B46FB703D
:102E9000FB78002B08D00B4BD3F8882009497B68BE
:102EA0001343C1F8883008E0064BD3F888207B68CC
:102EB000DB4304491340C1F8883000BF0C37BD46DE
:102EC00080BC70470000035880B483B000AF7860C6
:102ED0000B46FB70FB78002B08D00B4BD3F8E4209B
:102EE00009497B681343C1F8E43008E0064BD3F886
:102EF000E4207B68DB4304491340C1F8E43000BFA1
:102F00000C37BD4680BC70470000035880B483B0C6
:102F100000AF7860074A7B681360074BD3F87431C1
:102F2000054A43F00103C2F8743100BF0C37BD46B7
:102F300080BC7047AC501051000003582DE9F04F91
:102F4000A3B000AFF864A54B07F15C040FCB84E895
:102F50000F00A34B07F1540293E8030082E803003B
:102F6000A04B1B6803F04053C7F88030D7F880307F
:102F7000B3F1405F03D19C4BC7F884300BE0D7F826
:102F80008030B3F1005F03D1984BC7F8843002E082
:102F9000974BC7F88430934B5B689B0E03F03F035D
:102FA0000133C7F880308F4B5B6823F07C43FB67AD
:102FB000D7F8843000221D461646FB6F00229A4641
:102FC00093460AFB06F205FB0BF31344A5FB0A89A3
:102FD0004B4499464FF000004FF000014FEA983003
:102FE00040EA89404FEA9931D7F8803000223B63AC
:102FF0007A63D7E90C23FDF747FA02460B461346DE
:10300000C7F88430774B5B6B03F03F03C7F8803021
:10301000D7F88030002B07D0D7F88420D7F880303D
:10302000B2FBF3F2FB6C1A606E4B5B6B1B0A03F096
:103030003F03C7F88030D7F88030002B07D0D7F88F
:103040008420D7F88030B2FBF3F2FB6C5A60654BFA
:103050005B6B1B0C03F03F03C7F88030D7F8803060
:10306000002B07D0D7F88420D7F88030B2FBF3F2DA
:10307000FB6C9A605B4B1B6903F04053C7F88030D0
:10308000D7F88030B3F1405F03D1574BC7F8843095
:103090000BE0D7F88030B3F1005F03D1534BC7F892
:1030A000843002E0524BC7F884304E4B5B699B0E74
:1030B00003F03F030133C7F880304A4B5B6923F0CC
:1030C0007C43FB67D7F884300022BB62FA62FB6F57
:1030D00000223B627A62D7E90A342246D7E90856D1
:1030E000294601FB02F2B44618462146034603FB7B
:1030F0000CF3134402462946A2FB012179643A6489
:103100007A6C13447B644FF000004FF00001D7E964
:1031100010452346980B2A4640EA82402B46990BDD
:10312000D7F880300022BB61FA61D7E90623FDF7AA
:10313000ABF902460B461346C7F88430294B9B6B0C
:1031400003F03F03C7F88030D7F88030002B07D05A
:10315000D7F88420D7F88030B2FBF3F2FB6CDA604A
:10316000204B9B6B1B0A03F03F03C7F88030D7F856
:103170008030002B07D0D7F88420D7F88030B2FBFE
:10318000F3F2FB6C1A61174B9B6B1B0C03F03F03B4
:10319000C7F88030D7F88030002B07D0D7F88420CC
:1031A000D7F88030B2FBF3F2FB6C5A610D4B1B6A0F
:1031B00003F04053C7F88030D7F88030B3F1405F58
:1031C00003D1094BC7F8843017E0D7F88030B3F14A
:1031D000005F0FD1054BC7F884300EE0FC3A0015B4
:1031E0000C3B00150000035840787D010024F400DA
:1031F0000090D003904BC7F88430904B5B6A9B0ED5
:1032000003F03F030133C7F880308C4B5B6A23F037
:103210007C43FB67D7F8843000223B617A61FB6F07
:103220000022BB60FA60D7E904342246D7E902568F
:10323000294601FB02F2B44618462146034603FB29
:103240000CF3134402462946A2FB0121F963BA6339
:10325000FA6B1344FB634FF000004FF00001D7E915
:103260000E452346980B2A4640EA82402B46990B8E
:10327000D7F8803000223B607A60D7E90023FDF761
:1032800003F902460B461346C7F884306B4BDB6BE1
:1032900003F03F03C7F88030D7F88030002B07D009
:1032A000D7F88420D7F88030B2FBF3F2FB6C9A6138
:1032B000624BDB6B1B0A03F03F03C7F88030D7F883
:1032C0008030002B07D0D7F88420D7F88030B2FBAD
:1032D000F3F2FB6CDA61594BDB6B1B0C03F03F0321
:1032E000C7F88030D7F88030002B07D0D7F884207B
:1032F000D7F88030B2FBF3F2FB6C1A624F4B1B6CB9
:103300001B0D03F00F03403307F14802134413F879
:103310002C3C1A46484BD340BB67484B1B6C1B09DF
:1033200003F00F03403307F14802134413F82C3C19
:103330001A46434BD3407B67404B1B6B03F0406303
:10334000C7F88030D7F88030B3F1006F03D1FB6C41
:103350003C4A5A6215E0D7F88030B3F1806F03D150
:10336000FB6C7A6F5A620CE0D7F88030B3F1406F93
:1033700004D1FB6C1A68FB6C5A6202E0FB6CBA6FFA
:103380005A62FB6C5B6A2D4A126C02F00F024032EB
:1033900007F148010A4412F82C2CD3403B67FB6C20
:1033A000DB68264A126C120C02F00F02403207F161
:1033B00048010A4412F82C2CD340FB661F4B1B6CAF
:1033C0001B0A03F00F03403307F14802134413F8BC
:1033D0002C3C1A463B6F23FA02F2FB6C9A62FB6CA0
:1033E0009A6AFB6CDA62154BD3F86C3103F4003344
:1033F000B3F5003F03D1FB6CFA6E1A6302E0FB6C7D
:103400003A6F1A630D4BD3F86C3103F48033B3F584
:10341000803F19D1094B1B6C1B0E03F00F03403387
:1034200007F14802134413F82C3C1A46FB6E23FAAA
:1034300002F2FB6C5A6318E00090D00300000358BE
:103440000024F40040787D01444B1B6C1B0B03F0FF
:103450000F03403307F14802134413F82C3C1A467B
:103460003B6F23FA02F2FB6C5A63FB6C9A6AFB6CAB
:103470009A63FB6C9A6AFB6CDA63FB6C9A6AFB6C6E
:103480001A64FB6C5A6BFB6C5A64FB6C9A6AFB6C9B
:103490009A64FB6C9B6B314A526C02F0070240321B
:1034A00007F148010A4412F8342C23FA02F2FB6CAB
:1034B000DA64FB6CDB6B294A526C120A02F00702D9
:1034C000403207F148010A4412F8342C23FA02F280
:1034D000FB6C1A65FB6C1B6C204A526C120C02F0E0
:1034E0000702403207F148010A4412F8342C23FA4B
:1034F00002F2FB6C5A65FB6C5B6C184A526C120E44
:1035000002F00702403207F148010A4412F8342C55
:1035100023FA02F2FB6C9A65104BD3F8643103F482
:103520004053C7F88030D7F88030B3F5405F03D1FF
:10353000FB6C0B4ADA650BE0D7F88030B3F5005F1F
:1035400003D1FB6C7A6FDA6502E0FB6CBA6FDA6567
:1035500000BF8C37BD46BDE8F08F00BF00000358A8
:1035600040787D0180B586B000AF0020FFF74EFCAB
:103570004FF48070FFF730FC4FF48050FFF712FCDF
:103580004FF08070FFF7F4FB6E4B1B686D4A43F001
:10359000807313606C4B00221A606C4B1B686B4A83
:1035A00043F001031360684B1B6803F516737B61DE
:1035B000654B1B687A699A42FAD8624B1B68614A6C
:1035C00023F0807313604FF080634FF480224FF438
:1035D00080610420FFF734FC5D4B1B683B615C4B52
:1035E0005B68FB603A695B4B13403B610023FB6007
:1035F0003B6943F003033B61FB6843F41633FB6014
:10360000534A3B691360524AFB685360504B1B6836
:103610004F4A43F4002313604A4B1B68494A43F066
:1036200080731360484B00221A60484B1B68474A5E
:1036300043F001031360444B1A6841F27073134462
:10364000BB60414B1B68BA689A42FAD83D4B1B6875
:103650003C4A23F0807313603D4B1B683C4A23F4C3
:10366000803313603A4B1B683B613B6923F0405346
:103670003B61374A3B691360324B1B68314A43F068
:1036800080731360304B00221A60304B1B682F4A46
:1036900043F0010313602C4B1A6841F2707313441A
:1036A0007B60294B1B687A689A42FAD8254B1B68C5
:1036B000244A23F080731360254B1B68244A23F4AB
:1036C0000033136000BF224B1B6803F48013B3F573
:1036D000801FF8D11E4B1B681D4A43F480231360E2
:1036E000184B1B68174A43F080731360164B002277
:1036F0001A60164B1B68154A43F001031360124B06
:103700001B6803F516733B600F4B1B683A689A42BF
:10371000FAD80C4B1B680B4A23F08073136001200E
:10372000FFF70CFB4FF04070FFF7E2FA00BFFFF726
:10373000F9FA0346B3F1406FF9D100BF00BF183763
:10374000BD4680BDFCED00E0041000E0001000E08C
:103750000000035800F0FFFF80B5A2B000AF786012
:1037600039607B4A07F10C0392E8030083E8030009
:103770007B68BB677B685B68C7F88430D7F88430A8
:1037800023F06003C7F884303B689B68D7F8842037
:103790001343C7F884307B68D7F884205A607B686D
:1037A0001B68C7F88430D7F884206A4B1340C7F8E9
:1037B00084303B685A683B68DB681A433B689B6906
:1037C0001A433B681B691343D7F884201343C7F897
:1037D00084307B68D7F884201A607B689B68C7F8C0
:1037E0008430D7F8843023F00503C7F884303B6871
:1037F0005B69D7F884201343C7F884307B68D7F817
:1038000084209A6007F114031846FFF797FBBB6FFB
:10381000514A934217D0BB6F504A934213D0BB6FAB
:103820004F4A93420FD0BB6F4E4A93420BD0BB6FAF
:103830004D4A934207D0BB6F4C4A934203D0BB6FB3
:103840004B4A934203D17B6EC7F8803018E0BB6FC0
:10385000484A934203D0BB6F474A93420DD1FB6C59
:10386000464A526F120F02F0070288323A4412F8A9
:103870007C2CD340C7F8803002E03B6EC7F8803024
:103880007B681B6803F08063002B0DD1D7F8803074
:103890009A0813469B0013449A001A443B681B681D
:1038A000B2FBF3F3FB670CE0D7F880305A081346FD
:1038B0009B0013449A001A443B681B68B2FBF3F365
:1038C000FB67FB6F2E4AA2FB03235B091B01C7F8B2
:1038D0008430D7F884301B09642202FB03F3FA6FAB
:1038E000D31A7B677B681B6803F08063002B19D0B9
:1038F0007B6FDB003233224AA2FB03235B0903F018
:103900000F037B677B6F082B05D1D7F8843010330A
:10391000C7F8843014E0D7F884207B6F1343C7F8CE
:1039200084300DE07B6F1B013233154AA2FB032369
:103930005B0903F01F03D7F884201344C7F88430D1
:103940007B68D7F884205A6100BF8837BD4680BDA8
:10395000143B0015C1FFFFFB00E00D4000E40D40EB
:1039600000E80D4000EC0D4000F00D4000F40D406B
:1039700000F80D4000C4004000C80040000003589B
:103980001F85EB5180B483B000AF78607B684FF443
:1039900016521A607B6800225A607B6800229A6087
:1039A0007B680022DA607B6806221A617B6800224D
:1039B0005A617B6800229A6100BF0C37BD4680BC0B
:1039C000704780B483B000AF78600B46FB70FB7823
:1039D000002B06D07B681B6843F001027B681A60ED
:1039E00005E07B681B6823F001027B681A6000BF5A
:1039F0000C37BD4680BC704780B483B000AF7860A0
:103A000039603B68C3F308027B681A6100BF0C375A
:103A1000BD4680BC704780B485B000AF7860396027
:103A20007B68DA683B681340002B02D00123FB73EC
:103A300001E00023FB73FB7B18461437BD4680BCB6
:103A4000704700000D4885460D480E490E4A002378
:103A500002E0D458C4500433C4188C42F9D30B4A42
:103A60000B4C002301E013600432A242FBD3FEF7AB
:103A7000AFFEFCF7D3FEFEF7EBFCFEE700000224EE
:103A80000000002448050024343B001548050024AC
:103A900074080024FEE70000024B13B10248FDF752
:103AA000B1B9704700000000110E0015F8B500BF55
:103AB000F8BC08BC9E467047F8B500BFF8BC08BC0F
:043AC0009E46704767
:103AC40054686973206973206C656420626C696E44
:103AD4006B2064656D6F0D000003070D15202B32FC
:103AE40040000000B00060C03D1007C783FF3FF8EE
:103AF4003781ECFFFF060000000102020303030408
:103B04000506070809090909000000000102030469
:0C3B140000000000010203040A00000091
:083B200098C9FF7F01000000BD
:083B2800993A0015690400152B
:043B30004104001537
:103B340008000024000000000000000064050024C8
:103B4400CC0500243406002400000000000000001E
:103B54000000000000000000000000000000000061
:103B64000000000000000000000000000000000051
:103B74000000000000000000000000000000000041
:103B84000000000000000000000000000000000031
:103B94000000000000000000000000000000000021
:103BA4000000000000000000000000000000000011
:103BB4000000000000000000000000000000000001
:103BC40000000000000000000000000000000000F1
:103BD40001000000000000000E33CDAB34126DE68E
:103BE400ECDE05000B0000000000000000000000F7
:103BF40000000000000000000000000000000000C1
:103C040000000000000000000000000000000000B0
:103C140000000000000000000000000000000000A0
:103C24000000000000000000000000000000000090
:103C34000000000000000000000000000000000080
:103C44000000000000000000000000000000000070
:103C5400000000000000000000000000030000005D
:103C640064050024000000000000000000000000C3
:103C740038010024380100244001002440010024BC
:103C8400480100244801002450010024500100246C
:103C9400580100245801002460010024600100241C
:103CA40068010024680100247001002470010024CC
:103CB400780100247801002480010024800100247C
:103CC400880100248801002490010024900100242C
:103CD4009801002498010024A0010024A0010024DC
:103CE400A8010024A8010024B0010024B00100248C
:103CF400B8010024B8010024C0010024C00100243C
:103D0400C8010024C8010024D0010024D0010024EB
:103D1400D8010024D8010024E0010024E00100249B
:103D2400E8010024E8010024F0010024F00100244B
:103D3400F8010024F80100240002002400020024F9
:103D440008020024080200241002002410020024A7
:103D54001802002418020024200200242002002457
:103D64002802002428020024300200243002002407
:103D740038020024380200244002002440020024B7
:103D84004802002448020024500200245002002467
:103D94005802002458020024600200246002002417
:103DA40068020024680200247002002470020024C7
:103DB4007802002478020024800200248002002477
:103DC4008802002488020024900200249002002427
:103DD4009802002498020024A0020024A0020024D7
:103DE400A8020024A8020024B0020024B002002487
:103DF400B8020024B8020024C0020024C002002437
:103E0400C8020024C8020024D0020024D0020024E6
:103E1400D8020024D8020024E0020024E002002496
:103E2400E8020024E8020024F0020024F002002446
:103E3400F8020024F80200240003002400030024F4
:103E440008030024080300241003002410030024A2
:103E54001803002418030024200300242003002452
:103E64002803002428030024300300243003002402
:103E740038030024380300244003002440030024B2
:103E84004803002448030024500300245003002462
:103E94005803002458030024600300246003002412
:103EA40068030024680300247003002470030024C2
:103EB4007803002478030024800300248003002472
:103EC4008803002488030024900300249003002422
:103ED4009803002498030024A0030024A0030024D2
:103EE400A8030024A8030024B0030024B003002482
:103EF400B8030024B8030024C0030024C003002432
:103F0400C8030024C8030024D0030024D0030024E1
:103F1400D8030024D8030024E0030024E003002491
:103F2400E8030024E8030024F0030024F003002441
:103F3400F8030024F80300240004002400040024EF
:103F4400080400240804002410040024100400249D
:103F5400180400241804002420040024200400244D
:103F640028040024280400243004002430040024FD
:103F740038040024380400244004002440040024AD
:103F8400480400244804002450040024500400245D
:103F9400580400245804002460040024600400240D
:103FA40068040024680400247004002470040024BD
:103FB400780400247804002480040024800400246D
:103FC400880400248804002490040024900400241D
:103FD4009804002498040024A0040024A0040024CD
:103FE400A8040024A8040024B0040024B00400247D
:103FF400B8040024B8040024C0040024C00400242D
:10400400C8040024C8040024D0040024D0040024DC
:10401400D8040024D8040024E0040024E00400248C
:10402400E8040024E8040024F0040024F00400243C
:10403400F8040024F80400240005002400050024EA
:104044000805002408050024100500241005002498
:104054001805002418050024200500242005002448
:1040640028050024280500243005002430050024F8
:08407400FFFFFFFF0000020046
:0400000515003A4563
:00000001FF
