:020000041508DD
:100000000000023049150815C7080815D30808155F
:10001000DB080815E3080815EB08081500000000C8
:10002000000000000000000000000000F3080815B8
:10003000FF08081500000000991508150B090815A0
:100040009915081599150815991508159915081584
:100050009915081599150815991508159915081574
:100060009915081599150815991508159915081564
:100070009915081599150815991508159915081554
:10025000991508159915081500000000991508153D
:100260009915081599150815991508159915081562
:100270009915081599150815991508159915081552
:100280009915081599150815991508159915081542
:100290009915081599150815991508159915081532
:1002A0009915081599150815991508159915081522
:1002B0009915081599150815991508159915081512
:1002C0009915081599150815991508159915081502
:1002D00099150815991508159915081599150815F2
:1002E00099150815991508159915081599150815E2
:1002F000000000009915081599150815991508159D
:1003000099150815991508159915081599150815C1
:1003100099150815991508159915081599150815B1
:1003200099150815991508159915081599150815A1
:10033000991508159915081599150815000000005C
:100340009915081599150815991508159915081581
:100350009915081599150815991508159915081571
:100360009915081599150815991508159915081561
:100370009915081599150815991508159915081551
:100380009915081599150815991508159915081541
:100390009915081599150815991508159915081531
:1003A0009915081599150815991508159915081521
:1003B0009915081599150815991508159915081511
:1003C0009915081599150815991508159915081501
:1003D00099150815991508159915081599150815F1
:0803E00099150815991508157F
:1003E8000348044B834202D0034B03B118477047BC
:1003F8000000003000000030000000000548064BF7
:100408001B1AD90F01EBA301491002D0034B03B10A
:10041800184770470000003000000030000000005E
:1004280010B5064C237843B9FFF7DAFF044B13B134
:100438000448AFF300800123237010BD0000003092
:1004480000000000B015081508B5044B1BB104499D
:100458000448AFF30080BDE80840CFE70000000083
:1004680004000030B015081553B94AB9002908BF6F
:1004780000281CBF4FF0FF314FF0FF3000F06AB981
:10048800ADF1080C6DE904CE00F006F8DDF804E0E3
:10049800DDE9022304B070472DE9F047089D0E46B8
:1004A80004460F46002B4AD194468C45B2FA82F294
:1004B80060D942B1C2F12003974020FA03F30CFA45
:1004C80002FC1F4394404FEA1C4E1FFA8CF6B7FB00
:1004D800FEF1230C0EFB117743EA074301FB06F0FC
:1004E80098420AD91CEB030301F1FF3780F015810C
:1004F800984240F21281023963441B1AA4B2B3FB3A
:10050800FEF00EFB103344EA034400FB06F6A64255
:100518000AD91CEB040400F1FF3380F00081A642E5
:1005280040F2FD806444023840EA0140A41B0021E7
:100538001DB1D4400023C5E90043BDE8F0878B42D4
:1005480005D90DB1C5E9000100210846F5E7B3FA60
:1005580083F1002946D1B34202D3824200F2F580EA
:10056800841A66EB030201201746002DE5D0C5E981
:100578000047E2E7002A40F09380A1EB0C034FEA22
:100588001C471FFA8CFE0121B3FBF7F607FB163058
:10059800230C43EA00430EFB06F0984208D91CEBF3
:1005A800030306F1FF3802D2984200F2D080464693
:1005B8001B1AA4B2B3FBF7F007FB103344EA034459
:1005C8000EFB00FEA64508D91CEB040400F1FF331E
:1005D80002D2A64500F2B6801846A4EB0E0440EA03
:1005E8000640A5E7C1F120078B4022FA07FC4CEA38
:1005F800030C06FA01FE20FA07F426FA07F344EA88
:100608000E0400FA01F84FEA1C404FEA1449B3FB04
:10061800F0FE1FFA8CF600FB1E3349EA03430EFB7B
:1006280006F9994502FA01F20BD91CEB03030EF106
:10063800FF3A80F08580994540F28280AEF1020E43
:100648006344A3EB0909A4B2B9FBF0F300FB1399C7
:1006580044EA094403FB06F6A64208D91CEB040445
:1006680003F1FF3068D2A64266D9023B644443EAEC
:100678000E40A41BA0FB02E6B4427346B14652D317
:100688004FD05DB1B8EB030264EB090404FA07F735
:1006980022FA01F31F43CC40C5E9007400214CE75E
:1006A800C2F1200120FA01F30CFA02FC26FA01F14A
:1006B800964033434FEA1C471FFA8CFEB1FBF7F014
:1006C80007FB1016190C41EA064100FB0EF68E4294
:1006D80004FA02F408D91CEB010100F1FF382DD20D
:1006E8008E422BD902386144891B9BB2B1FBF7F6C5
:1006F80007FB161143EA014306FB0EF1994208D99C
:100708001CEB030306F1FF3814D2994212D9023EBA
:1007180063445B1A46EA004136E73946EDE6184677
:1007280002E7F045ADD2BEEB020366EB0C060138DA
:10073800B146A6E74646ECE7034698E74046D3E7C6
:10074800D6467EE76444023847E708460DE7023E8E
:1007580063442DE7704700BF70B50F4B0F4DAB4298
:10076800A3EB050607D0B610002455F8043B013466
:100778009847A642F9D800F017FF094D094B5E1BB0
:10078800AB424FEAA60606D0002455F8043B0134D4
:100798009847A642F9D870BD081608150816081516
:1007A8000816081510160815002301461A4618469B
:1007B80000F014B838B5074D074C2C1BA41005D011
:1007C800013C55F8043D9847002CF9D1BDE8384064
:1007D80000F0F0BE141608151016081570B4164D62
:1007E8002C681CB365681F2D23DC38B9AB1C013598
:1007F800656044F82310002070BC704704EB850C3A
:100808000228CCF88820D4F888614FF0010202FA57
:1008180005F246EA0206C4F88861CCF80831E5D149
:10082800D4F88C311343C4F88C31DFE7034C2C60C7
:10083800D8E74FF0FF30DFE71C0000302000003021
:1008480080B500AF00F032F800F016F84FF4005110
:10085800084800F022FB4FF47A7000F07DF84FF45E
:100868000051044800F027FB4FF47A7000F074F848
:1008780000BFEBE70034035880B586B000AF3B46B5
:10088800184600F0EFFA4FF400533B6001237B60F9
:100898000023BB603B461946034800F0A1F800BF9F
:1008A8001837BD4680BD00BF0034035880B500AF7F
:1008B80001214FF4802000F00DFB00BF80BD80B403
:1008C80000AF00BFBD4680BC704780B400AF00BF1A
:1008D800FDE780B400AF00BFFDE780B400AF00BF04
:1008E800FDE780B400AF00BFFDE780B400AF00BFF4
:1008F800BD4680BC704780B400AF00BFBD4680BC19
:10090800704780B400AF00BFBD4680BC7047000090
:1009180080B483B000AF78607B68B3F1807F01D387
:10092800012312E07B6823F07F430A4A013B5360AE
:10093800084B00229A60074B05221A60054B1B687A
:10094800044A23F002031360002318460C37BD46FF
:1009580080BC704710E000E080B59CB000AF7860C4
:1009680007F10C03184600F0D7FABB6B104AA2FB3C
:1009780003239B091846FFF7CBFF0023FB6609E01A
:1009880000BF0C4B1B6803F48033002BF9D0FB6EBF
:100998000133FB66FA6E7B689A42F1D3054B1B68FC
:1009A800044A23F00103136000BF7037BD4680BDC1
:1009B800D34D621010E000E080B400AF064B1B6915
:1009C800054A43F010031361034B044A9A6000BFC1
:1009D800BD4680BC704700BF00ED00E00000081570
:1009E800B0B495B000AF786039600023FB64002391
:1009F8003B630023BB6400237B640023FB6200236A
:100A08003B640023FB630023BB6300237B639A4A98
:100A180007F1200307CA03C31A70984B07F10C04A7
:100A28001D460FCD0FC42B6823807B6803F1284334
:100A3800A3F54A339B0AFB6202E23B681A6801216C
:100A4800FB6C01FA03F313403B630122FB6C02FACF
:100A580003F3BB64FB6A082B19D8BB6C9AB2FB6A18
:100A68005B0050333B4433F8443C13409BB2002BAB
:100A78000DD03B681A68BB6C1340002B04D00122D0
:100A88007B6B02FA03F37B647B6B01337B6300238C
:100A9800BB643B6B002B00F0D0813B685B68022B8A
:100AA8000BD03B685B68122B07D03B685B68002B58
:100AB80003D03B685B68032B3DD1FB6C03F0080354
:100AC800002B1CD07B685B6ABB64FB6C03F00703DC
:100AD8009B000F2202FA03F3DB43BA6C1340BB649A
:100AE8003B685A69FB6C03F007039B0002FA03F3A7
:100AF800BA6C1343BB647B68BA6C5A621BE07B68B0
:100B08001B6ABB64FB6C03F007039B000F2202FA0D
:100B180003F3DB43BA6C1340BB643B685A69FB6C54
:100B280003F007039B0002FA03F3BA6C1343BB6498
:100B38007B68BA6C1A623B685B68012B0BD03B6818
:100B48005B68022B07D03B685B68112B03D03B68BE
:100B58005B68122B18D17B685B68BB640122FB6C55
:100B680002FA03F3DB43BA6C1340BB643B685B686F
:100B78001B0903F00102FB6C02FA03F3BA6C13437E
:100B8800BB647B68BA6C5A607B681B68BB64FB6C8F
:100B98005B00032202FA03F3DB43BA6C1340BB6425
:100BA8003B685B6803F00302FB6C5B0002FA03F32B
:100BB800BA6C1343BB647B68BA6C1A607B68DB68E9
:100BC800BB64FB6C5B00032202FA03F3DB43BA6CE1
:100BD8001340BB643B689A68FB6C5B0002FA03F342
:100BE800BA6C1343BB647B68BA6CDA607B689B6839
:100BF800BB640122FB6C02FA03F3DB43BA6C1340BB
:100C0800BB643B68DA68FB6C02FA03F3BA6C134303
:100C1800BB647B68BA6C9A607B68DB6ABB64FB6CFC
:100C28005B00032202FA03F3DB43BA6C1340BB6494
:100C3800FB6A082B00F2E2803B6B9AB2FB6A5B000E
:100C480050333B4433F8443C13409BB2002B00F034
:100C5800D5807B680A4A934216D13B6B012B13D18E
:100C6800084BD3F8E8303B64064BD3F8F430FB6309
:100C78004FF00043BB634CE0C8150815D4150815A0
:100C88000048035800240358744907F12002FB6AFE
:100C980013441B785B09DBB238339B000B445B6859
:100CA8003B646E4907F12002FB6A13441B785B0919
:100CB800DBB23C3351F82330FB637B68684A9342CC
:100CC80002D17B6C5A0800E07A6C07F12001FB6ABC
:100CD8000B441B781F2B05D807F12001FB6A0B4436
:100CE8001B7813E007F12001FB6A0B441B783F2BAC
:100CF80006D807F12001FB6A0B441B78203B05E06E
:100D080007F12001FB6A0B441B78403B02FA03F30E
:100D1800BB633B681B691B0C1B0413F5803F13D195
:100D28003A6CBB6B13433B64FA6BBB6B1343FB63BB
:100D38003B681B6903F00F02FB6C5B0002FA03F3CC
:100D4800BA6C1343BB642FE03B681B6903F07F4315
:100D5800B3F17F4F15D1BB6BDB433A6C13403B6457
:100D6800BB6BDB43FA6B1340FB633B681B6903F007
:100D78000F02FB6C5B0002FA03F3BA6C1343BB640B
:100D880012E0BB6BDB433A6C13403B64BB6BDB4349
:100D9800FA6B1340FB633B681A69FB6C5B0002FA51
:100DA80003F3BA6C1343BB647B682D4A93420BD19F
:100DB8003B6B012B08D1294A3B6CC2F8E830274A23
:100DC800FB6BC2F8F43035E0244907F12002FB6AD6
:100DD80013441B785B09DBB238339B000B443A6C35
:100DE8005A601E4907F12002FB6A13441B785B090D
:100DF800DBB23C33FA6B41F823201BE03B681B69EC
:100E080003F07F43B3F17F4F0BD13B681B6903F0BD
:100E18000F02FB6C5B0002FA03F3BA6C1343BB646A
:100E280008E03B681A69FB6C5B0002FA03F3BA6CD2
:100E38001343BB647B68BA6CDA62FB6C0133FB64F6
:100E48003B681A68FB6C22FA03F3002B7FF4F5ADBC
:100E580000BF00BF5437BD46B0BC704700240358DC
:100E68000048035880B483B000AF78607B680022E4
:100E78001A607B6800225A607B6800229A607B684F
:100E88000122DA607B6800221A617B680F225A61AE
:100E980000BF0C37BD4680BC704780B483B000AF3C
:100EA80078600B467B807A887B689A6100BF0C3734
:100EB800BD4680BC704780B483B000AF78600B46F5
:100EC8007B807A887B689A6200BF0C37BD4680BCFD
:100ED8007047000080B483B000AF78600B46FB70A9
:100EE800FB78002B08D00B4BD3F8E42009497B682A
:100EF8001343C1F8E43008E0064BD3F8E4207B68DC
:100F0800DB4304491340C1F8E43000BF0C37BD4649
:100F180080BC7047000003582DE9F04FA3B000AF24
:100F2800F864A54B07F15C040FCB84E80F00A34BD2
:100F380007F1540293E8030082E80300A04B1B6802
:100F480003F04053C7F88030D7F88030B3F1405FE2
:100F580003D19C4BC7F884300BE0D7F88030B3F14D
:100F6800005F03D1984BC7F8843002E0974BC7F86D
:100F78008430934B5B689B0E03F03F030133C7F843
:100F880080308F4B5B6823F07C43FB67D7F8843055
:100F980000221D461646FB6F00229A4693460AFB1E
:100FA80006F205FB0BF31344A5FB0A894B4499464B
:100FB8004FF000004FF000014FEA983040EA8940B6
:100FC8004FEA9931D7F8803000223B637A63D7E93A
:100FD8000C23FFF749FA02460B461346C7F884303C
:100FE800774B5B6B03F03F03C7F88030D7F880304E
:100FF800002B07D0D7F88420D7F88030B2FBF3F263
:10100800FB6C1A606E4B5B6B1B0A03F03F03C7F85F
:101018008030D7F88030002B07D0D7F88420D7F855
:101028008030B2FBF3F2FB6C5A60654B5B6B1B0CB8
:1010380003F03F03C7F88030D7F88030002B07D083
:10104800D7F88420D7F88030B2FBF3F2FB6C9A60B3
:101058005B4B1B6903F04053C7F88030D7F88030EA
:10106800B3F1405F03D1574BC7F884300BE0D7F892
:101078008030B3F1005F03D1534BC7F8843002E0EE
:10108800524BC7F884304E4B5B699B0E03F03F030D
:101098000133C7F880304A4B5B6923F07C43FB6718
:1010A800D7F884300022BB62FA62FB6F00223B62F1
:1010B8007A62D7E90A342246D7E90856294601FB5D
:1010C80002F2B44618462146034603FB0CF31344C8
:1010D80002462946A2FB012179643A647A6C1344DA
:1010E8007B644FF000004FF00001D7E9104523461C
:1010F800980B2A4640EA82402B46990BD7F8803055
:101108000022BB61FA61D7E90623FFF7ADF9024671
:101118000B461346C7F88430294B9B6B03F03F03FB
:10112800C7F88030D7F88030002B07D0D7F8842054
:10113800D7F88030B2FBF3F2FB6CDA60204B9B6B84
:101148001B0A03F03F03C7F88030D7F88030002B24
:1011580007D0D7F88420D7F88030B2FBF3F2FB6CC5
:101168001A61174B9B6B1B0C03F03F03C7F88030C9
:10117800D7F88030002B07D0D7F88420D7F88030F4
:10118800B2FBF3F2FB6C5A610D4B1B6A03F0405340
:10119800C7F88030D7F88030B3F1405F03D1094BEE
:1011A800C7F8843017E0D7F88030B3F1005F0FD16B
:1011B800054BC7F884300EE0E8150815F815081532
:1011C8000000035840787D010024F4000090D0030B
:1011D800904BC7F88430904B5B6A9B0E03F03F033B
:1011E8000133C7F880308C4B5B6A23F07C43FB6784
:1011F800D7F8843000223B617A61FB6F0022BB6024
:10120800FA60D7E904342246D7E90256294601FB99
:1012180002F2B44618462146034603FB0CF3134476
:1012280002462946A2FB0121F963BA63FA6B13440B
:10123800FB634FF000004FF00001D7E90E4523464D
:10124800980B2A4640EA82402B46990BD7F8803003
:1012580000223B607A60D7E90023FFF705F90246D0
:101268000B461346C7F884306B4BDB6B03F03F0328
:10127800C7F88030D7F88030002B07D0D7F8842003
:10128800D7F88030B2FBF3F2FB6C9A61624BDB6BF0
:101298001B0A03F03F03C7F88030D7F88030002BD3
:1012A80007D0D7F88420D7F88030B2FBF3F2FB6C74
:1012B800DA61594BDB6B1B0C03F03F03C7F8803036
:1012C800D7F88030002B07D0D7F88420D7F88030A3
:1012D800B2FBF3F2FB6C1A624F4B1B6C1B0D03F055
:1012E8000F03403307F14802134413F82C3C1A4605
:1012F800484BD340BB67484B1B6C1B0903F00F03DB
:10130800403307F14802134413F82C3C1A46434B68
:10131800D3407B67404B1B6B03F04063C7F88030BA
:10132800D7F88030B3F1006F03D1FB6C3C4A5A62A6
:1013380015E0D7F88030B3F1806F03D1FB6C7A6F7A
:101348005A620CE0D7F88030B3F1406F04D1FB6CDF
:101358001A68FB6C5A6202E0FB6CBA6F5A62FB6C4B
:101368005B6A2D4A126C02F00F02403207F1480105
:101378000A4412F82C2CD3403B67FB6CDB68264AE6
:10138800126C120C02F00F02403207F148010A44B5
:1013980012F82C2CD340FB661F4B1B6C1B0A03F066
:1013A8000F03403307F14802134413F82C3C1A4644
:1013B8003B6F23FA02F2FB6C9A62FB6C9A6AFB6C35
:1013C800DA62154BD3F86C3103F40033B3F5003F00
:1013D80003D1FB6CFA6E1A6302E0FB6C3A6F1A6376
:1013E8000D4BD3F86C3103F48033B3F5803F19D13A
:1013F800094B1B6C1B0E03F00F03403307F1480227
:10140800134413F82C3C1A46FB6E23FA02F2FB6CC9
:101418005A6318E00090D003000003580024F40039
:1014280040787D01444B1B6C1B0B03F00F034033CA
:1014380007F14802134413F82C3C1A463B6F23FA71
:1014480002F2FB6C5A63FB6C9A6AFB6C9A63FB6C46
:101458009A6AFB6CDA63FB6C9A6AFB6C1A64FB6C25
:101468005A6BFB6C5A64FB6C9A6AFB6C9A64FB6C53
:101478009B6B314A526C02F00702403207F1480177
:101488000A4412F8342C23FA02F2FB6CDA64FB6C7F
:10149800DB6B294A526C120A02F00702403207F14C
:1014A80048010A4412F8342C23FA02F2FB6C1A653C
:1014B800FB6C1B6C204A526C120C02F00702403283
:1014C80007F148010A4412F8342C23FA02F2FB6CA3
:1014D8005A65FB6C5B6C184A526C120E02F00702DC
:1014E800403207F148010A4412F8342C23FA02F278
:1014F800FB6C9A65104BD3F8643103F44053C7F87A
:101508008030D7F88030B3F5405F03D1FB6C0B4ACD
:10151800DA650BE0D7F88030B3F5005F03D1FB6CD8
:101528007A6FDA6502E0FB6CBA6FDA6500BF8C3758
:10153800BD46BDE8F08F00BF0000035840787D012C
:101548000D4885460D480E490E4A002302E0D4583E
:10155800C4500433C4188C42F9D30B4A0B4C0023F3
:1015680001E013600432A242FBD3FFF725FAFFF72C
:10157800F3F8FFF765F9FEE70000023000000030DD
:10158800000000301416081500000030B0010030CB
:10159800FEE70000024B13B10248FFF705B9704798
:1015A80000000000BD070815F8B500BFF8BC08BC6E
:1015B8009E467047F8B500BFF8BC08BC9E46704709
:1015C8000003070D15202B3240000000B00060C05A
:1015D8003D1007C783FF3FF83781ECFFFF06000087
:1015E80000010202030303040506070809090909A3
:0815F8000000000001020304E1
:08160000A0EEFF7F01000000D5
:081608009D1508155104081599
:04161000290408158C
:04000005150815497C
:00000001FF
